{
  "contractName": "BokkyPooBahsDateTimeContract",
  "abi": [
    {
      "inputs": [],
      "name": "DOW_FRI",
      "outputs": [
        {
          "internalType": "uint256",
          "name": "",
          "type": "uint256"
        }
      ],
      "stateMutability": "view",
      "type": "function"
    },
    {
      "inputs": [],
      "name": "DOW_MON",
      "outputs": [
        {
          "internalType": "uint256",
          "name": "",
          "type": "uint256"
        }
      ],
      "stateMutability": "view",
      "type": "function"
    },
    {
      "inputs": [],
      "name": "DOW_SAT",
      "outputs": [
        {
          "internalType": "uint256",
          "name": "",
          "type": "uint256"
        }
      ],
      "stateMutability": "view",
      "type": "function"
    },
    {
      "inputs": [],
      "name": "DOW_SUN",
      "outputs": [
        {
          "internalType": "uint256",
          "name": "",
          "type": "uint256"
        }
      ],
      "stateMutability": "view",
      "type": "function"
    },
    {
      "inputs": [],
      "name": "DOW_THU",
      "outputs": [
        {
          "internalType": "uint256",
          "name": "",
          "type": "uint256"
        }
      ],
      "stateMutability": "view",
      "type": "function"
    },
    {
      "inputs": [],
      "name": "DOW_TUE",
      "outputs": [
        {
          "internalType": "uint256",
          "name": "",
          "type": "uint256"
        }
      ],
      "stateMutability": "view",
      "type": "function"
    },
    {
      "inputs": [],
      "name": "DOW_WED",
      "outputs": [
        {
          "internalType": "uint256",
          "name": "",
          "type": "uint256"
        }
      ],
      "stateMutability": "view",
      "type": "function"
    },
    {
      "inputs": [],
      "name": "OFFSET19700101",
      "outputs": [
        {
          "internalType": "int256",
          "name": "",
          "type": "int256"
        }
      ],
      "stateMutability": "view",
      "type": "function"
    },
    {
      "inputs": [],
      "name": "SECONDS_PER_DAY",
      "outputs": [
        {
          "internalType": "uint256",
          "name": "",
          "type": "uint256"
        }
      ],
      "stateMutability": "view",
      "type": "function"
    },
    {
      "inputs": [],
      "name": "SECONDS_PER_HOUR",
      "outputs": [
        {
          "internalType": "uint256",
          "name": "",
          "type": "uint256"
        }
      ],
      "stateMutability": "view",
      "type": "function"
    },
    {
      "inputs": [],
      "name": "SECONDS_PER_MINUTE",
      "outputs": [
        {
          "internalType": "uint256",
          "name": "",
          "type": "uint256"
        }
      ],
      "stateMutability": "view",
      "type": "function"
    },
    {
      "inputs": [],
      "name": "_now",
      "outputs": [
        {
          "internalType": "uint256",
          "name": "timestamp",
          "type": "uint256"
        }
      ],
      "stateMutability": "view",
      "type": "function"
    },
    {
      "inputs": [],
      "name": "_nowDateTime",
      "outputs": [
        {
          "internalType": "uint256",
          "name": "year",
          "type": "uint256"
        },
        {
          "internalType": "uint256",
          "name": "month",
          "type": "uint256"
        },
        {
          "internalType": "uint256",
          "name": "day",
          "type": "uint256"
        },
        {
          "internalType": "uint256",
          "name": "hour",
          "type": "uint256"
        },
        {
          "internalType": "uint256",
          "name": "minute",
          "type": "uint256"
        },
        {
          "internalType": "uint256",
          "name": "second",
          "type": "uint256"
        }
      ],
      "stateMutability": "view",
      "type": "function"
    },
    {
      "inputs": [
        {
          "internalType": "uint256",
          "name": "year",
          "type": "uint256"
        },
        {
          "internalType": "uint256",
          "name": "month",
          "type": "uint256"
        },
        {
          "internalType": "uint256",
          "name": "day",
          "type": "uint256"
        }
      ],
      "name": "_daysFromDate",
      "outputs": [
        {
          "internalType": "uint256",
          "name": "_days",
          "type": "uint256"
        }
      ],
      "stateMutability": "pure",
      "type": "function"
    },
    {
      "inputs": [
        {
          "internalType": "uint256",
          "name": "_days",
          "type": "uint256"
        }
      ],
      "name": "_daysToDate",
      "outputs": [
        {
          "internalType": "uint256",
          "name": "year",
          "type": "uint256"
        },
        {
          "internalType": "uint256",
          "name": "month",
          "type": "uint256"
        },
        {
          "internalType": "uint256",
          "name": "day",
          "type": "uint256"
        }
      ],
      "stateMutability": "pure",
      "type": "function"
    },
    {
      "inputs": [
        {
          "internalType": "uint256",
          "name": "year",
          "type": "uint256"
        },
        {
          "internalType": "uint256",
          "name": "month",
          "type": "uint256"
        },
        {
          "internalType": "uint256",
          "name": "day",
          "type": "uint256"
        }
      ],
      "name": "timestampFromDate",
      "outputs": [
        {
          "internalType": "uint256",
          "name": "timestamp",
          "type": "uint256"
        }
      ],
      "stateMutability": "pure",
      "type": "function"
    },
    {
      "inputs": [
        {
          "internalType": "uint256",
          "name": "year",
          "type": "uint256"
        },
        {
          "internalType": "uint256",
          "name": "month",
          "type": "uint256"
        },
        {
          "internalType": "uint256",
          "name": "day",
          "type": "uint256"
        },
        {
          "internalType": "uint256",
          "name": "hour",
          "type": "uint256"
        },
        {
          "internalType": "uint256",
          "name": "minute",
          "type": "uint256"
        },
        {
          "internalType": "uint256",
          "name": "second",
          "type": "uint256"
        }
      ],
      "name": "timestampFromDateTime",
      "outputs": [
        {
          "internalType": "uint256",
          "name": "timestamp",
          "type": "uint256"
        }
      ],
      "stateMutability": "pure",
      "type": "function"
    },
    {
      "inputs": [
        {
          "internalType": "uint256",
          "name": "timestamp",
          "type": "uint256"
        }
      ],
      "name": "timestampToDate",
      "outputs": [
        {
          "internalType": "uint256",
          "name": "year",
          "type": "uint256"
        },
        {
          "internalType": "uint256",
          "name": "month",
          "type": "uint256"
        },
        {
          "internalType": "uint256",
          "name": "day",
          "type": "uint256"
        }
      ],
      "stateMutability": "pure",
      "type": "function"
    },
    {
      "inputs": [
        {
          "internalType": "uint256",
          "name": "timestamp",
          "type": "uint256"
        }
      ],
      "name": "timestampToDateTime",
      "outputs": [
        {
          "internalType": "uint256",
          "name": "year",
          "type": "uint256"
        },
        {
          "internalType": "uint256",
          "name": "month",
          "type": "uint256"
        },
        {
          "internalType": "uint256",
          "name": "day",
          "type": "uint256"
        },
        {
          "internalType": "uint256",
          "name": "hour",
          "type": "uint256"
        },
        {
          "internalType": "uint256",
          "name": "minute",
          "type": "uint256"
        },
        {
          "internalType": "uint256",
          "name": "second",
          "type": "uint256"
        }
      ],
      "stateMutability": "pure",
      "type": "function"
    },
    {
      "inputs": [
        {
          "internalType": "uint256",
          "name": "year",
          "type": "uint256"
        },
        {
          "internalType": "uint256",
          "name": "month",
          "type": "uint256"
        },
        {
          "internalType": "uint256",
          "name": "day",
          "type": "uint256"
        }
      ],
      "name": "isValidDate",
      "outputs": [
        {
          "internalType": "bool",
          "name": "valid",
          "type": "bool"
        }
      ],
      "stateMutability": "pure",
      "type": "function"
    },
    {
      "inputs": [
        {
          "internalType": "uint256",
          "name": "year",
          "type": "uint256"
        },
        {
          "internalType": "uint256",
          "name": "month",
          "type": "uint256"
        },
        {
          "internalType": "uint256",
          "name": "day",
          "type": "uint256"
        },
        {
          "internalType": "uint256",
          "name": "hour",
          "type": "uint256"
        },
        {
          "internalType": "uint256",
          "name": "minute",
          "type": "uint256"
        },
        {
          "internalType": "uint256",
          "name": "second",
          "type": "uint256"
        }
      ],
      "name": "isValidDateTime",
      "outputs": [
        {
          "internalType": "bool",
          "name": "valid",
          "type": "bool"
        }
      ],
      "stateMutability": "pure",
      "type": "function"
    },
    {
      "inputs": [
        {
          "internalType": "uint256",
          "name": "timestamp",
          "type": "uint256"
        }
      ],
      "name": "isLeapYear",
      "outputs": [
        {
          "internalType": "bool",
          "name": "leapYear",
          "type": "bool"
        }
      ],
      "stateMutability": "pure",
      "type": "function"
    },
    {
      "inputs": [
        {
          "internalType": "uint256",
          "name": "year",
          "type": "uint256"
        }
      ],
      "name": "_isLeapYear",
      "outputs": [
        {
          "internalType": "bool",
          "name": "leapYear",
          "type": "bool"
        }
      ],
      "stateMutability": "pure",
      "type": "function"
    },
    {
      "inputs": [
        {
          "internalType": "uint256",
          "name": "timestamp",
          "type": "uint256"
        }
      ],
      "name": "isWeekDay",
      "outputs": [
        {
          "internalType": "bool",
          "name": "weekDay",
          "type": "bool"
        }
      ],
      "stateMutability": "pure",
      "type": "function"
    },
    {
      "inputs": [
        {
          "internalType": "uint256",
          "name": "timestamp",
          "type": "uint256"
        }
      ],
      "name": "isWeekEnd",
      "outputs": [
        {
          "internalType": "bool",
          "name": "weekEnd",
          "type": "bool"
        }
      ],
      "stateMutability": "pure",
      "type": "function"
    },
    {
      "inputs": [
        {
          "internalType": "uint256",
          "name": "timestamp",
          "type": "uint256"
        }
      ],
      "name": "getDaysInMonth",
      "outputs": [
        {
          "internalType": "uint256",
          "name": "daysInMonth",
          "type": "uint256"
        }
      ],
      "stateMutability": "pure",
      "type": "function"
    },
    {
      "inputs": [
        {
          "internalType": "uint256",
          "name": "year",
          "type": "uint256"
        },
        {
          "internalType": "uint256",
          "name": "month",
          "type": "uint256"
        }
      ],
      "name": "_getDaysInMonth",
      "outputs": [
        {
          "internalType": "uint256",
          "name": "daysInMonth",
          "type": "uint256"
        }
      ],
      "stateMutability": "pure",
      "type": "function"
    },
    {
      "inputs": [
        {
          "internalType": "uint256",
          "name": "timestamp",
          "type": "uint256"
        }
      ],
      "name": "getDayOfWeek",
      "outputs": [
        {
          "internalType": "uint256",
          "name": "dayOfWeek",
          "type": "uint256"
        }
      ],
      "stateMutability": "pure",
      "type": "function"
    },
    {
      "inputs": [
        {
          "internalType": "uint256",
          "name": "timestamp",
          "type": "uint256"
        }
      ],
      "name": "getYear",
      "outputs": [
        {
          "internalType": "uint256",
          "name": "year",
          "type": "uint256"
        }
      ],
      "stateMutability": "pure",
      "type": "function"
    },
    {
      "inputs": [
        {
          "internalType": "uint256",
          "name": "timestamp",
          "type": "uint256"
        }
      ],
      "name": "getMonth",
      "outputs": [
        {
          "internalType": "uint256",
          "name": "month",
          "type": "uint256"
        }
      ],
      "stateMutability": "pure",
      "type": "function"
    },
    {
      "inputs": [
        {
          "internalType": "uint256",
          "name": "timestamp",
          "type": "uint256"
        }
      ],
      "name": "getDay",
      "outputs": [
        {
          "internalType": "uint256",
          "name": "day",
          "type": "uint256"
        }
      ],
      "stateMutability": "pure",
      "type": "function"
    },
    {
      "inputs": [
        {
          "internalType": "uint256",
          "name": "timestamp",
          "type": "uint256"
        }
      ],
      "name": "getHour",
      "outputs": [
        {
          "internalType": "uint256",
          "name": "hour",
          "type": "uint256"
        }
      ],
      "stateMutability": "pure",
      "type": "function"
    },
    {
      "inputs": [
        {
          "internalType": "uint256",
          "name": "timestamp",
          "type": "uint256"
        }
      ],
      "name": "getMinute",
      "outputs": [
        {
          "internalType": "uint256",
          "name": "minute",
          "type": "uint256"
        }
      ],
      "stateMutability": "pure",
      "type": "function"
    },
    {
      "inputs": [
        {
          "internalType": "uint256",
          "name": "timestamp",
          "type": "uint256"
        }
      ],
      "name": "getSecond",
      "outputs": [
        {
          "internalType": "uint256",
          "name": "second",
          "type": "uint256"
        }
      ],
      "stateMutability": "pure",
      "type": "function"
    },
    {
      "inputs": [
        {
          "internalType": "uint256",
          "name": "timestamp",
          "type": "uint256"
        },
        {
          "internalType": "uint256",
          "name": "_years",
          "type": "uint256"
        }
      ],
      "name": "addYears",
      "outputs": [
        {
          "internalType": "uint256",
          "name": "newTimestamp",
          "type": "uint256"
        }
      ],
      "stateMutability": "pure",
      "type": "function"
    },
    {
      "inputs": [
        {
          "internalType": "uint256",
          "name": "timestamp",
          "type": "uint256"
        },
        {
          "internalType": "uint256",
          "name": "_months",
          "type": "uint256"
        }
      ],
      "name": "addMonths",
      "outputs": [
        {
          "internalType": "uint256",
          "name": "newTimestamp",
          "type": "uint256"
        }
      ],
      "stateMutability": "pure",
      "type": "function"
    },
    {
      "inputs": [
        {
          "internalType": "uint256",
          "name": "timestamp",
          "type": "uint256"
        },
        {
          "internalType": "uint256",
          "name": "_days",
          "type": "uint256"
        }
      ],
      "name": "addDays",
      "outputs": [
        {
          "internalType": "uint256",
          "name": "newTimestamp",
          "type": "uint256"
        }
      ],
      "stateMutability": "pure",
      "type": "function"
    },
    {
      "inputs": [
        {
          "internalType": "uint256",
          "name": "timestamp",
          "type": "uint256"
        },
        {
          "internalType": "uint256",
          "name": "_hours",
          "type": "uint256"
        }
      ],
      "name": "addHours",
      "outputs": [
        {
          "internalType": "uint256",
          "name": "newTimestamp",
          "type": "uint256"
        }
      ],
      "stateMutability": "pure",
      "type": "function"
    },
    {
      "inputs": [
        {
          "internalType": "uint256",
          "name": "timestamp",
          "type": "uint256"
        },
        {
          "internalType": "uint256",
          "name": "_minutes",
          "type": "uint256"
        }
      ],
      "name": "addMinutes",
      "outputs": [
        {
          "internalType": "uint256",
          "name": "newTimestamp",
          "type": "uint256"
        }
      ],
      "stateMutability": "pure",
      "type": "function"
    },
    {
      "inputs": [
        {
          "internalType": "uint256",
          "name": "timestamp",
          "type": "uint256"
        },
        {
          "internalType": "uint256",
          "name": "_seconds",
          "type": "uint256"
        }
      ],
      "name": "addSeconds",
      "outputs": [
        {
          "internalType": "uint256",
          "name": "newTimestamp",
          "type": "uint256"
        }
      ],
      "stateMutability": "pure",
      "type": "function"
    },
    {
      "inputs": [
        {
          "internalType": "uint256",
          "name": "timestamp",
          "type": "uint256"
        },
        {
          "internalType": "uint256",
          "name": "_years",
          "type": "uint256"
        }
      ],
      "name": "subYears",
      "outputs": [
        {
          "internalType": "uint256",
          "name": "newTimestamp",
          "type": "uint256"
        }
      ],
      "stateMutability": "pure",
      "type": "function"
    },
    {
      "inputs": [
        {
          "internalType": "uint256",
          "name": "timestamp",
          "type": "uint256"
        },
        {
          "internalType": "uint256",
          "name": "_months",
          "type": "uint256"
        }
      ],
      "name": "subMonths",
      "outputs": [
        {
          "internalType": "uint256",
          "name": "newTimestamp",
          "type": "uint256"
        }
      ],
      "stateMutability": "pure",
      "type": "function"
    },
    {
      "inputs": [
        {
          "internalType": "uint256",
          "name": "timestamp",
          "type": "uint256"
        },
        {
          "internalType": "uint256",
          "name": "_days",
          "type": "uint256"
        }
      ],
      "name": "subDays",
      "outputs": [
        {
          "internalType": "uint256",
          "name": "newTimestamp",
          "type": "uint256"
        }
      ],
      "stateMutability": "pure",
      "type": "function"
    },
    {
      "inputs": [
        {
          "internalType": "uint256",
          "name": "timestamp",
          "type": "uint256"
        },
        {
          "internalType": "uint256",
          "name": "_hours",
          "type": "uint256"
        }
      ],
      "name": "subHours",
      "outputs": [
        {
          "internalType": "uint256",
          "name": "newTimestamp",
          "type": "uint256"
        }
      ],
      "stateMutability": "pure",
      "type": "function"
    },
    {
      "inputs": [
        {
          "internalType": "uint256",
          "name": "timestamp",
          "type": "uint256"
        },
        {
          "internalType": "uint256",
          "name": "_minutes",
          "type": "uint256"
        }
      ],
      "name": "subMinutes",
      "outputs": [
        {
          "internalType": "uint256",
          "name": "newTimestamp",
          "type": "uint256"
        }
      ],
      "stateMutability": "pure",
      "type": "function"
    },
    {
      "inputs": [
        {
          "internalType": "uint256",
          "name": "timestamp",
          "type": "uint256"
        },
        {
          "internalType": "uint256",
          "name": "_seconds",
          "type": "uint256"
        }
      ],
      "name": "subSeconds",
      "outputs": [
        {
          "internalType": "uint256",
          "name": "newTimestamp",
          "type": "uint256"
        }
      ],
      "stateMutability": "pure",
      "type": "function"
    },
    {
      "inputs": [
        {
          "internalType": "uint256",
          "name": "fromTimestamp",
          "type": "uint256"
        },
        {
          "internalType": "uint256",
          "name": "toTimestamp",
          "type": "uint256"
        }
      ],
      "name": "diffYears",
      "outputs": [
        {
          "internalType": "uint256",
          "name": "_years",
          "type": "uint256"
        }
      ],
      "stateMutability": "pure",
      "type": "function"
    },
    {
      "inputs": [
        {
          "internalType": "uint256",
          "name": "fromTimestamp",
          "type": "uint256"
        },
        {
          "internalType": "uint256",
          "name": "toTimestamp",
          "type": "uint256"
        }
      ],
      "name": "diffMonths",
      "outputs": [
        {
          "internalType": "uint256",
          "name": "_months",
          "type": "uint256"
        }
      ],
      "stateMutability": "pure",
      "type": "function"
    },
    {
      "inputs": [
        {
          "internalType": "uint256",
          "name": "fromTimestamp",
          "type": "uint256"
        },
        {
          "internalType": "uint256",
          "name": "toTimestamp",
          "type": "uint256"
        }
      ],
      "name": "diffDays",
      "outputs": [
        {
          "internalType": "uint256",
          "name": "_days",
          "type": "uint256"
        }
      ],
      "stateMutability": "pure",
      "type": "function"
    },
    {
      "inputs": [
        {
          "internalType": "uint256",
          "name": "fromTimestamp",
          "type": "uint256"
        },
        {
          "internalType": "uint256",
          "name": "toTimestamp",
          "type": "uint256"
        }
      ],
      "name": "diffHours",
      "outputs": [
        {
          "internalType": "uint256",
          "name": "_hours",
          "type": "uint256"
        }
      ],
      "stateMutability": "pure",
      "type": "function"
    },
    {
      "inputs": [
        {
          "internalType": "uint256",
          "name": "fromTimestamp",
          "type": "uint256"
        },
        {
          "internalType": "uint256",
          "name": "toTimestamp",
          "type": "uint256"
        }
      ],
      "name": "diffMinutes",
      "outputs": [
        {
          "internalType": "uint256",
          "name": "_minutes",
          "type": "uint256"
        }
      ],
      "stateMutability": "pure",
      "type": "function"
    },
    {
      "inputs": [
        {
          "internalType": "uint256",
          "name": "fromTimestamp",
          "type": "uint256"
        },
        {
          "internalType": "uint256",
          "name": "toTimestamp",
          "type": "uint256"
        }
      ],
      "name": "diffSeconds",
      "outputs": [
        {
          "internalType": "uint256",
          "name": "_seconds",
          "type": "uint256"
        }
      ],
      "stateMutability": "pure",
      "type": "function"
    }
  ],
  "bytecode": "0x608060405234801561001057600080fd5b5061242f806100206000396000f3fe608060405234801561001057600080fd5b506004361061030b5760003560e01c80638aa001fc1161019d578063c7b6fd6a116100e9578063de5101af116100a2578063f615ed541161007c578063f615ed5414610b46578063f9fd525014610b76578063fa93f88314610b94578063ff2258cb14610bc45761030b565b8063de5101af14610ac1578063e955643014610af3578063ea1c169014610b115761030b565b8063c7b6fd6a146109d7578063c7edf88c14610a07578063c9d3462214610a25578063cfbb9f3714610a55578063d2b5074314610a73578063d6582d0d14610a915761030b565b80639e524caa11610156578063ad203bd411610130578063ad203bd414610929578063b05eb08d14610959578063b3bb8cd414610989578063b8d16dbc146109a75761030b565b80639e524caa146108ab578063a324ad24146108db578063a3f144ae1461090b5761030b565b80638aa001fc146107a85780638bbf51b7146107d85780638d4a2d39146107f657806390059aed146108265780639220d4261461085857806392d663131461087b5761030b565b80634355644d1161025c5780635e05bd6d116102155780637217523c116101ef5780637217523c146106fa57806374f0314f1461072a5780637be341091461074857806389a3a00d146107785761030b565b80635e05bd6d1461066a57806362fb96971461069a57806365c72840146106ca5761030b565b80634355644d1461055c5780634371c4651461058c578063442b8c79146105bc578063444fda82146105ec5780634b3215021461061c5780634df861261461064c5761030b565b80631f4f77b2116102c95780632af123b8116102a35780632af123b81461049c5780633293d007146104cc5780633e239e1a146104fc5780633f9e0eb71461052c5761030b565b80631f4f77b21461041e57806322f8a2b81461044e578063294416741461047e5761030b565b80625015531461031057806302e98e0d1461034057806310848ddf14610370578063126702a0146103a057806314b2d6dc146103be5780631e0582e9146103ee575b600080fd5b61032a60048036038101906103259190611d33565b610bf4565b6040516103379190611d82565b60405180910390f35b61035a60048036038101906103559190611d33565b610c08565b6040516103679190611d82565b60405180910390f35b61038a60048036038101906103859190611d9d565b610c1c565b6040516103979190611d82565b60405180910390f35b6103a8610c2e565b6040516103b59190611d82565b60405180910390f35b6103d860048036038101906103d39190611dca565b610c33565b6040516103e59190611e38565b60405180910390f35b61040860048036038101906104039190611dca565b610c49565b6040516104159190611d82565b60405180910390f35b61043860048036038101906104339190611dca565b610c5f565b6040516104459190611d82565b60405180910390f35b61046860048036038101906104639190611d9d565b610c75565b6040516104759190611d82565b60405180910390f35b610486610c87565b6040516104939190611d82565b60405180910390f35b6104b660048036038101906104b19190611d33565b610c8c565b6040516104c39190611d82565b60405180910390f35b6104e660048036038101906104e19190611e53565b610ca0565b6040516104f39190611e38565b60405180910390f35b61051660048036038101906105119190611d9d565b610cbc565b6040516105239190611d82565b60405180910390f35b61054660048036038101906105419190611d33565b610cce565b6040516105539190611d82565b60405180910390f35b61057660048036038101906105719190611d33565b610ce2565b6040516105839190611d82565b60405180910390f35b6105a660048036038101906105a19190611d9d565b610cf6565b6040516105b39190611e38565b60405180910390f35b6105d660048036038101906105d19190611d33565b610d08565b6040516105e39190611d82565b60405180910390f35b61060660048036038101906106019190611d33565b610d1c565b6040516106139190611d82565b60405180910390f35b61063660048036038101906106319190611d33565b610d30565b6040516106439190611d82565b60405180910390f35b610654610d44565b6040516106619190611d82565b60405180910390f35b610684600480360381019061067f9190611e53565b610d4a565b6040516106919190611d82565b60405180910390f35b6106b460048036038101906106af9190611d33565b610d66565b6040516106c19190611d82565b60405180910390f35b6106e460048036038101906106df9190611d9d565b610d7a565b6040516106f19190611d82565b60405180910390f35b610714600480360381019061070f9190611d33565b610d8c565b6040516107219190611d82565b60405180910390f35b610732610da0565b60405161073f9190611d82565b60405180910390f35b610762600480360381019061075d9190611d33565b610da7565b60405161076f9190611d82565b60405180910390f35b610792600480360381019061078d9190611d33565b610dbb565b60405161079f9190611d82565b60405180910390f35b6107c260048036038101906107bd9190611d9d565b610dcf565b6040516107cf9190611d82565b60405180910390f35b6107e0610de1565b6040516107ed9190611d82565b60405180910390f35b610810600480360381019061080b9190611d33565b610de6565b60405161081d9190611d82565b60405180910390f35b610840600480360381019061083b9190611d9d565b610dfa565b60405161084f93929190611ee0565b60405180910390f35b610860610e15565b60405161087296959493929190611f17565b60405180910390f35b61089560048036038101906108909190611d9d565b610e47565b6040516108a29190611d82565b60405180910390f35b6108c560048036038101906108c09190611d33565b610e59565b6040516108d29190611d82565b60405180910390f35b6108f560048036038101906108f09190611d9d565b610e6d565b6040516109029190611d82565b60405180910390f35b610913610e7f565b6040516109209190611f91565b60405180910390f35b610943600480360381019061093e9190611d33565b610e86565b6040516109509190611d82565b60405180910390f35b610973600480360381019061096e9190611d9d565b610e9a565b6040516109809190611e38565b60405180910390f35b610991610eac565b60405161099e9190611d82565b60405180910390f35b6109c160048036038101906109bc9190611d9d565b610eb4565b6040516109ce9190611e38565b60405180910390f35b6109f160048036038101906109ec9190611d33565b610ec6565b6040516109fe9190611d82565b60405180910390f35b610a0f610eda565b604051610a1c9190611d82565b60405180910390f35b610a3f6004803603810190610a3a9190611d33565b610edf565b604051610a4c9190611d82565b60405180910390f35b610a5d610ef3565b604051610a6a9190611d82565b60405180910390f35b610a7b610ef8565b604051610a889190611d82565b60405180910390f35b610aab6004803603810190610aa69190611d9d565b610efd565b604051610ab89190611e38565b60405180910390f35b610adb6004803603810190610ad69190611d9d565b610f0f565b604051610aea93929190611ee0565b60405180910390f35b610afb610f30565b604051610b089190611d82565b60405180910390f35b610b2b6004803603810190610b269190611d9d565b610f35565b604051610b3d96959493929190611f17565b60405180910390f35b610b606004803603810190610b5b9190611d33565b610f68565b604051610b6d9190611d82565b60405180910390f35b610b7e610f7c565b604051610b8b9190611d82565b60405180910390f35b610bae6004803603810190610ba99190611d9d565b610f81565b604051610bbb9190611d82565b60405180910390f35b610bde6004803603810190610bd99190611d33565b610f93565b604051610beb9190611d82565b60405180910390f35b6000610c008383610fa7565b905092915050565b6000610c148383610fd7565b905092915050565b6000610c2782611006565b9050919050565b600281565b6000610c4084848461103a565b90509392505050565b6000610c56848484611091565b90509392505050565b6000610c6c8484846111f0565b90509392505050565b6000610c8082611214565b9050919050565b600781565b6000610c988383611255565b905092915050565b6000610cb0878787878787611285565b90509695505050505050565b6000610cc7826112c8565b9050919050565b6000610cda83836112f2565b905092915050565b6000610cee838361137d565b905092915050565b6000610d0182611460565b9050919050565b6000610d148383611476565b905092915050565b6000610d28838361150c565b905092915050565b6000610d3c83836115a2565b905092915050565b610e1081565b6000610d5a8787878787876115d2565b90509695505050505050565b6000610d728383611633565b905092915050565b6000610d8582611656565b9050919050565b6000610d98838361167d565b905092915050565b6201518081565b6000610db383836116ae565b905092915050565b6000610dc78383611741565b905092915050565b6000610dda82611770565b9050919050565b600381565b6000610df28383611786565b905092915050565b6000806000610e08846117a9565b9250925092509193909250565b600080600080600080610e2742611948565b809650819750829850839950849a50859b50505050505050909192939495565b6000610e52826119cf565b9050919050565b6000610e6583836119f4565b905092915050565b6000610e7882611a23565b9050919050565b62253d8c81565b6000610e928383611a49565b905092915050565b6000610ea582611b2f565b9050919050565b600042905090565b6000610ebf82611b78565b9050919050565b6000610ed28383611ba7565b905092915050565b600681565b6000610eeb8383611bd8565b905092915050565b600481565b600581565b6000610f0882611c09565b9050919050565b6000806000610f1d84611c1f565b8093508194508295505050509193909250565b603c81565b600080600080600080610f4787611948565b809650819750829850839950849a50859b5050505050505091939550919395565b6000610f748383611c4e565b905092915050565b600181565b6000610f8c82611c71565b9050919050565b6000610f9f8383611c99565b905092915050565b6000610e1082610fb79190611fdb565b83610fc29190612035565b905082811115610fd157600080fd5b92915050565b600081831115610fe657600080fd5b603c8383610ff49190612035565b610ffe9190612098565b905092915050565b6000806000611022620151808561101d9190612098565b6117a9565b509150915061103182826112f2565b92505050919050565b60006107b2841015801561104e5750600083115b801561105b5750600c8311155b1561108a57600061106c85856112f2565b905060008311801561107e5750808311155b1561108857600191505b505b9392505050565b60006107b28410156110a257600080fd5b600084905060008490506000849050600062253d8c60046064600c600e876110ca91906120c9565b6110d4919061215d565b611324886110e291906121c7565b6110ec91906121c7565b6110f6919061215d565b6003611102919061225b565b61110c919061215d565b600c80600c600e8861111e91906120c9565b611128919061215d565b611132919061225b565b60028761113f91906120c9565b61114991906120c9565b61016f611156919061225b565b611160919061215d565b6004600c600e8861117191906120c9565b61117b919061215d565b6112c08961118991906121c7565b61119391906121c7565b6105b56111a0919061225b565b6111aa919061215d565b617d4b866111b891906120c9565b6111c291906121c7565b6111cc91906121c7565b6111d691906120c9565b6111e091906120c9565b9050809450505050509392505050565b600062015180611201858585611091565b61120b9190611fdb565b90509392505050565b60008062015180836112269190612098565b9050600160076003836112399190612372565b61124391906123c8565b61124d9190612372565b915050919050565b60008183111561126457600080fd5b610e1083836112739190612035565b61127d9190612098565b905092915050565b600061129287878761103a565b156112be576018841080156112a75750603c83105b80156112b35750603c82105b156112bd57600190505b5b9695505050505050565b60008062015180836112da91906123c8565b9050610e10816112ea9190612098565b915050919050565b600060018214806113035750600382145b8061130e5750600582145b806113195750600782145b806113245750600882145b8061132f5750600a82145b8061133a5750600c82145b1561134857601f9050611377565b6002821461135957601e9050611376565b61136283611b2f565b61136d57601c611370565b601d5b60ff1690505b5b92915050565b60008060008061139a62015180876113959190612098565b6117a9565b92509250925084826113ac9190612372565b9150600c6001836113bd9190612035565b6113c79190612098565b836113d29190612372565b92506001600c6001846113e59190612035565b6113ef91906123c8565b6113f99190612372565b9150600061140784846112f2565b905080821115611415578091505b620151808761142491906123c8565b62015180611433868686611091565b61143d9190611fdb565b6114479190612372565b94508685101561145657600080fd5b5050505092915050565b6000600661146d83611214565b10159050919050565b600080600080611493620151808761148e9190612098565b6117a9565b92509250925084836114a59190612372565b925060006114b384846112f2565b9050808211156114c1578091505b62015180876114d091906123c8565b620151806114df868686611091565b6114e99190611fdb565b6114f39190612372565b94508685101561150257600080fd5b5050505092915050565b60008060008061152962015180876115249190612098565b6117a9565b925092509250848361153b9190612035565b9250600061154984846112f2565b905080821115611557578091505b620151808761156691906123c8565b62015180611575868686611091565b61157f9190611fdb565b6115899190612372565b94508685111561159857600080fd5b5050505092915050565b6000610e10826115b29190611fdb565b836115bd9190612372565b9050828110156115cc57600080fd5b92915050565b600081603c846115e29190611fdb565b610e10866115f09190611fdb565b620151806115ff8b8b8b611091565b6116099190611fdb565b6116139190612372565b61161d9190612372565b6116279190612372565b90509695505050505050565b60008183111561164257600080fd5b828261164e9190612035565b905092915050565b600061166f620151808361166a9190612098565b6117a9565b909150905080915050919050565b6000620151808261168e9190611fdb565b836116999190612372565b9050828110156116a857600080fd5b92915050565b6000818311156116bd57600080fd5b6000806116d762015180866116d29190612098565b6117a9565b50915091506000806116f662015180876116f19190612098565b6117a9565b509150915082600c856117099190611fdb565b82600c856117179190611fdb565b6117219190612372565b61172b9190612035565b6117359190612035565b94505050505092915050565b6000603c826117509190611fdb565b8361175b9190612372565b90508281101561176a57600080fd5b92915050565b6000603c8261177f91906123c8565b9050919050565b600081836117949190612372565b9050828110156117a357600080fd5b92915050565b600080600080849050600062253d8c62010bd9836117c791906121c7565b6117d191906121c7565b9050600062023ab18260046117e6919061225b565b6117f0919061215d565b9050600460038262023ab1611805919061225b565b61180f91906121c7565b611819919061215d565b8261182491906120c9565b9150600062164b0960018461183991906121c7565b610fa0611846919061225b565b611850919061215d565b9050601f6004826105b5611864919061225b565b61186e919061215d565b8461187991906120c9565b61188391906121c7565b9250600061098f846050611897919061225b565b6118a1919061215d565b9050600060508261098f6118b5919061225b565b6118bf919061215d565b856118ca91906120c9565b9050600b826118d9919061215d565b945084600c6118e8919061225b565b6002836118f591906121c7565b6118ff91906120c9565b9150848360318661191091906120c9565b606461191c919061225b565b61192691906121c7565b61193091906121c7565b92508298508197508096505050505050509193909250565b60008060008060008061196862015180886119639190612098565b6117a9565b8096508197508298505050506000620151808861198591906123c8565b9050610e10816119959190612098565b9350610e10816119a591906123c8565b9050603c816119b49190612098565b9250603c816119c391906123c8565b91505091939550919395565b60006119e862015180836119e39190612098565b6117a9565b90505080915050919050565b6000603c82611a039190611fdb565b83611a0e9190612035565b905082811115611a1d57600080fd5b92915050565b6000611a3c6201518083611a379190612098565b6117a9565b9091505080915050919050565b600080600080611a666201518087611a619190612098565b6117a9565b925092509250600085600184611a7c9190612035565b600c86611a899190611fdb565b611a939190612372565b611a9d9190612035565b9050600c81611aac9190612098565b93506001600c82611abd91906123c8565b611ac79190612372565b92506000611ad585856112f2565b905080831115611ae3578092505b6201518088611af291906123c8565b62015180611b01878787611091565b611b0b9190611fdb565b611b159190612372565b955087861115611b2457600080fd5b505050505092915050565b600080600483611b3f91906123c8565b148015611b5957506000606483611b5691906123c8565b14155b80611b715750600061019083611b6f91906123c8565b145b9050919050565b600080611b926201518084611b8d9190612098565b6117a9565b50509050611b9f81611b2f565b915050919050565b60006201518082611bb89190611fdb565b83611bc39190612035565b905082811115611bd257600080fd5b92915050565b600081831115611be757600080fd5b620151808383611bf79190612035565b611c019190612098565b905092915050565b60006005611c1683611214565b11159050919050565b6000806000611c3b6201518085611c369190612098565b6117a9565b8093508194508295505050509193909250565b60008183611c5c9190612035565b905082811115611c6b57600080fd5b92915050565b600080610e1083611c8291906123c8565b9050603c81611c919190612098565b915050919050565b600081831115611ca857600080fd5b6000611cc16201518085611cbc9190612098565b6117a9565b505090506000611cde6201518085611cd99190612098565b6117a9565b505090508181611cee9190612035565b9250505092915050565b600080fd5b6000819050919050565b611d1081611cfd565b8114611d1b57600080fd5b50565b600081359050611d2d81611d07565b92915050565b60008060408385031215611d4a57611d49611cf8565b5b6000611d5885828601611d1e565b9250506020611d6985828601611d1e565b9150509250929050565b611d7c81611cfd565b82525050565b6000602082019050611d976000830184611d73565b92915050565b600060208284031215611db357611db2611cf8565b5b6000611dc184828501611d1e565b91505092915050565b600080600060608486031215611de357611de2611cf8565b5b6000611df186828701611d1e565b9350506020611e0286828701611d1e565b9250506040611e1386828701611d1e565b9150509250925092565b60008115159050919050565b611e3281611e1d565b82525050565b6000602082019050611e4d6000830184611e29565b92915050565b60008060008060008060c08789031215611e7057611e6f611cf8565b5b6000611e7e89828a01611d1e565b9650506020611e8f89828a01611d1e565b9550506040611ea089828a01611d1e565b9450506060611eb189828a01611d1e565b9350506080611ec289828a01611d1e565b92505060a0611ed389828a01611d1e565b9150509295509295509295565b6000606082019050611ef56000830186611d73565b611f026020830185611d73565b611f0f6040830184611d73565b949350505050565b600060c082019050611f2c6000830189611d73565b611f396020830188611d73565b611f466040830187611d73565b611f536060830186611d73565b611f606080830185611d73565b611f6d60a0830184611d73565b979650505050505050565b6000819050919050565b611f8b81611f78565b82525050565b6000602082019050611fa66000830184611f82565b92915050565b7f4e487b7100000000000000000000000000000000000000000000000000000000600052601160045260246000fd5b6000611fe682611cfd565b9150611ff183611cfd565b9250817fffffffffffffffffffffffffffffffffffffffffffffffffffffffffffffffff048311821515161561202a57612029611fac565b5b828202905092915050565b600061204082611cfd565b915061204b83611cfd565b92508282101561205e5761205d611fac565b5b828203905092915050565b7f4e487b7100000000000000000000000000000000000000000000000000000000600052601260045260246000fd5b60006120a382611cfd565b91506120ae83611cfd565b9250826120be576120bd612069565b5b828204905092915050565b60006120d482611f78565b91506120df83611f78565b9250827f80000000000000000000000000000000000000000000000000000000000000000182126000841215161561211a57612119611fac565b5b827f7fffffffffffffffffffffffffffffffffffffffffffffffffffffffffffffff01821360008412161561215257612151611fac565b5b828203905092915050565b600061216882611f78565b915061217383611f78565b92508261218357612182612069565b5b600160000383147f8000000000000000000000000000000000000000000000000000000000000000831416156121bc576121bb611fac565b5b828205905092915050565b60006121d282611f78565b91506121dd83611f78565b9250817f7fffffffffffffffffffffffffffffffffffffffffffffffffffffffffffffff0383136000831215161561221857612217611fac565b5b817f80000000000000000000000000000000000000000000000000000000000000000383126000831216156122505761224f611fac565b5b828201905092915050565b600061226682611f78565b915061227183611f78565b9250827f7fffffffffffffffffffffffffffffffffffffffffffffffffffffffffffffff04821160008413600084131616156122b0576122af611fac565b5b817f800000000000000000000000000000000000000000000000000000000000000005831260008412600084131616156122ed576122ec611fac565b5b827f8000000000000000000000000000000000000000000000000000000000000000058212600084136000841216161561232a57612329611fac565b5b827f7fffffffffffffffffffffffffffffffffffffffffffffffffffffffffffffff058212600084126000841216161561236757612366611fac565b5b828202905092915050565b600061237d82611cfd565b915061238883611cfd565b9250827fffffffffffffffffffffffffffffffffffffffffffffffffffffffffffffffff038211156123bd576123bc611fac565b5b828201905092915050565b60006123d382611cfd565b91506123de83611cfd565b9250826123ee576123ed612069565b5b82820690509291505056fea26469706673582212202ac415dc4ea59252807b47fa5f1003dc6e14e068c3dd938985c95baead1c80be64736f6c634300080a0033",
  "immutableReferences": {},
  "source": "// SPDX-License-Identifier: MIT\r\npragma solidity >=0.6.0 <0.9.0;\r\n\r\n// ----------------------------------------------------------------------------\r\n// BokkyPooBah's DateTime Library v1.00 - Contract Instance\r\n//\r\n// A gas-efficient Solidity date and time library\r\n//\r\n// https://github.com/bokkypoobah/BokkyPooBahsDateTimeLibrary\r\n//\r\n// Tested date range 1970/01/01 to 2345/12/31\r\n//\r\n// Conventions:\r\n// Unit      | Range         | Notes\r\n// :-------- |:-------------:|:-----\r\n// timestamp | >= 0          | Unix timestamp, number of seconds since 1970/01/01 00:00:00 UTC\r\n// year      | 1970 ... 2345 |\r\n// month     | 1 ... 12      |\r\n// day       | 1 ... 31      |\r\n// hour      | 0 ... 23      |\r\n// minute    | 0 ... 59      |\r\n// second    | 0 ... 59      |\r\n// dayOfWeek | 1 ... 7       | 1 = Monday, ..., 7 = Sunday\r\n//\r\n//\r\n// Enjoy. (c) BokkyPooBah / Bok Consulting Pty Ltd 2018.\r\n//\r\n// GNU Lesser General Public License 3.0\r\n// https://www.gnu.org/licenses/lgpl-3.0.en.html\r\n// ----------------------------------------------------------------------------\r\n\r\nimport \"./BokkyPooBahsDateTimeLibrary.sol\";\r\n\r\ncontract BokkyPooBahsDateTimeContract {\r\n    uint public constant SECONDS_PER_DAY = 24 * 60 * 60;\r\n    uint public constant SECONDS_PER_HOUR = 60 * 60;\r\n    uint public constant SECONDS_PER_MINUTE = 60;\r\n    int public constant OFFSET19700101 = 2440588;\r\n\r\n    uint public constant DOW_MON = 1;\r\n    uint public constant DOW_TUE = 2;\r\n    uint public constant DOW_WED = 3;\r\n    uint public constant DOW_THU = 4;\r\n    uint public constant DOW_FRI = 5;\r\n    uint public constant DOW_SAT = 6;\r\n    uint public constant DOW_SUN = 7;\r\n\r\n    function _now() public view returns (uint timestamp) {\r\n        timestamp = block.timestamp;\r\n    }\r\n    function _nowDateTime() public view returns (uint year, uint month, uint day, uint hour, uint minute, uint second) {\r\n        (year, month, day, hour, minute, second) = BokkyPooBahsDateTimeLibrary.timestampToDateTime(block.timestamp);\r\n    }\r\n    function _daysFromDate(uint year, uint month, uint day) public pure returns (uint _days) {\r\n        return BokkyPooBahsDateTimeLibrary._daysFromDate(year, month, day);\r\n    }\r\n    function _daysToDate(uint _days) public pure returns (uint year, uint month, uint day) {\r\n        return BokkyPooBahsDateTimeLibrary._daysToDate(_days);\r\n    }\r\n    function timestampFromDate(uint year, uint month, uint day) public pure returns (uint timestamp) {\r\n        return BokkyPooBahsDateTimeLibrary.timestampFromDate(year, month, day);\r\n    }\r\n    function timestampFromDateTime(uint year, uint month, uint day, uint hour, uint minute, uint second) public pure returns (uint timestamp) {\r\n        return BokkyPooBahsDateTimeLibrary.timestampFromDateTime(year, month, day, hour, minute, second);\r\n    }\r\n    function timestampToDate(uint timestamp) public pure returns (uint year, uint month, uint day) {\r\n        (year, month, day) = BokkyPooBahsDateTimeLibrary.timestampToDate(timestamp);\r\n    }\r\n    function timestampToDateTime(uint timestamp) public pure returns (uint year, uint month, uint day, uint hour, uint minute, uint second) {\r\n        (year, month, day, hour, minute, second) = BokkyPooBahsDateTimeLibrary.timestampToDateTime(timestamp);\r\n    }\r\n\r\n    function isValidDate(uint year, uint month, uint day) public pure returns (bool valid) {\r\n        valid = BokkyPooBahsDateTimeLibrary.isValidDate(year, month, day);\r\n    }\r\n    function isValidDateTime(uint year, uint month, uint day, uint hour, uint minute, uint second) public pure returns (bool valid) {\r\n        valid = BokkyPooBahsDateTimeLibrary.isValidDateTime(year, month, day, hour, minute, second);\r\n    }\r\n    function isLeapYear(uint timestamp) public pure returns (bool leapYear) {\r\n        leapYear = BokkyPooBahsDateTimeLibrary.isLeapYear(timestamp);\r\n    }\r\n    function _isLeapYear(uint year) public pure returns (bool leapYear) {\r\n        leapYear = BokkyPooBahsDateTimeLibrary._isLeapYear(year);\r\n    }\r\n    function isWeekDay(uint timestamp) public pure returns (bool weekDay) {\r\n        weekDay = BokkyPooBahsDateTimeLibrary.isWeekDay(timestamp);\r\n    }\r\n    function isWeekEnd(uint timestamp) public pure returns (bool weekEnd) {\r\n        weekEnd = BokkyPooBahsDateTimeLibrary.isWeekEnd(timestamp);\r\n    }\r\n\r\n    function getDaysInMonth(uint timestamp) public pure returns (uint daysInMonth) {\r\n        daysInMonth = BokkyPooBahsDateTimeLibrary.getDaysInMonth(timestamp);\r\n    }\r\n    function _getDaysInMonth(uint year, uint month) public pure returns (uint daysInMonth) {\r\n        daysInMonth = BokkyPooBahsDateTimeLibrary._getDaysInMonth(year, month);\r\n    }\r\n    function getDayOfWeek(uint timestamp) public pure returns (uint dayOfWeek) {\r\n        dayOfWeek = BokkyPooBahsDateTimeLibrary.getDayOfWeek(timestamp);\r\n    }\r\n\r\n    function getYear(uint timestamp) public pure returns (uint year) {\r\n        year = BokkyPooBahsDateTimeLibrary.getYear(timestamp);\r\n    }\r\n    function getMonth(uint timestamp) public pure returns (uint month) {\r\n        month = BokkyPooBahsDateTimeLibrary.getMonth(timestamp);\r\n    }\r\n    function getDay(uint timestamp) public pure returns (uint day) {\r\n        day = BokkyPooBahsDateTimeLibrary.getDay(timestamp);\r\n    }\r\n    function getHour(uint timestamp) public pure returns (uint hour) {\r\n        hour = BokkyPooBahsDateTimeLibrary.getHour(timestamp);\r\n    }\r\n    function getMinute(uint timestamp) public pure returns (uint minute) {\r\n        minute = BokkyPooBahsDateTimeLibrary.getMinute(timestamp);\r\n    }\r\n    function getSecond(uint timestamp) public pure returns (uint second) {\r\n        second = BokkyPooBahsDateTimeLibrary.getSecond(timestamp);\r\n    }\r\n\r\n    function addYears(uint timestamp, uint _years) public pure returns (uint newTimestamp) {\r\n        newTimestamp = BokkyPooBahsDateTimeLibrary.addYears(timestamp, _years);\r\n    }\r\n    function addMonths(uint timestamp, uint _months) public pure returns (uint newTimestamp) {\r\n        newTimestamp = BokkyPooBahsDateTimeLibrary.addMonths(timestamp, _months);\r\n    }\r\n    function addDays(uint timestamp, uint _days) public pure returns (uint newTimestamp) {\r\n        newTimestamp = BokkyPooBahsDateTimeLibrary.addDays(timestamp, _days);\r\n    }\r\n    function addHours(uint timestamp, uint _hours) public pure returns (uint newTimestamp) {\r\n        newTimestamp = BokkyPooBahsDateTimeLibrary.addHours(timestamp, _hours);\r\n    }\r\n    function addMinutes(uint timestamp, uint _minutes) public pure returns (uint newTimestamp) {\r\n        newTimestamp = BokkyPooBahsDateTimeLibrary.addMinutes(timestamp, _minutes);\r\n    }\r\n    function addSeconds(uint timestamp, uint _seconds) public pure returns (uint newTimestamp) {\r\n        newTimestamp = BokkyPooBahsDateTimeLibrary.addSeconds(timestamp, _seconds);\r\n    }\r\n\r\n    function subYears(uint timestamp, uint _years) public pure returns (uint newTimestamp) {\r\n        newTimestamp = BokkyPooBahsDateTimeLibrary.subYears(timestamp, _years);\r\n    }\r\n    function subMonths(uint timestamp, uint _months) public pure returns (uint newTimestamp) {\r\n        newTimestamp = BokkyPooBahsDateTimeLibrary.subMonths(timestamp, _months);\r\n    }\r\n    function subDays(uint timestamp, uint _days) public pure returns (uint newTimestamp) {\r\n        newTimestamp = BokkyPooBahsDateTimeLibrary.subDays(timestamp, _days);\r\n    }\r\n    function subHours(uint timestamp, uint _hours) public pure returns (uint newTimestamp) {\r\n        newTimestamp = BokkyPooBahsDateTimeLibrary.subHours(timestamp, _hours);\r\n    }\r\n    function subMinutes(uint timestamp, uint _minutes) public pure returns (uint newTimestamp) {\r\n        newTimestamp = BokkyPooBahsDateTimeLibrary.subMinutes(timestamp, _minutes);\r\n    }\r\n    function subSeconds(uint timestamp, uint _seconds) public pure returns (uint newTimestamp) {\r\n        newTimestamp = BokkyPooBahsDateTimeLibrary.subSeconds(timestamp, _seconds);\r\n    }\r\n\r\n    function diffYears(uint fromTimestamp, uint toTimestamp) public pure returns (uint _years) {\r\n        _years = BokkyPooBahsDateTimeLibrary.diffYears(fromTimestamp, toTimestamp);\r\n    }\r\n    function diffMonths(uint fromTimestamp, uint toTimestamp) public pure returns (uint _months) {\r\n        _months = BokkyPooBahsDateTimeLibrary.diffMonths(fromTimestamp, toTimestamp);\r\n    }\r\n    function diffDays(uint fromTimestamp, uint toTimestamp) public pure returns (uint _days) {\r\n        _days = BokkyPooBahsDateTimeLibrary.diffDays(fromTimestamp, toTimestamp);\r\n    }\r\n    function diffHours(uint fromTimestamp, uint toTimestamp) public pure returns (uint _hours) {\r\n        _hours = BokkyPooBahsDateTimeLibrary.diffHours(fromTimestamp, toTimestamp);\r\n    }\r\n    function diffMinutes(uint fromTimestamp, uint toTimestamp) public pure returns (uint _minutes) {\r\n        _minutes = BokkyPooBahsDateTimeLibrary.diffMinutes(fromTimestamp, toTimestamp);\r\n    }\r\n    function diffSeconds(uint fromTimestamp, uint toTimestamp) public pure returns (uint _seconds) {\r\n        _seconds = BokkyPooBahsDateTimeLibrary.diffSeconds(fromTimestamp, toTimestamp);\r\n    }\r\n}\r\n",
  "sourcePath": "C:\\Users\\adnan\\Desktop\\SP najnovije\\DApp\\LP-21\\app_dapp\\contracts\\BokkyPooBahsDateTimeContract.sol",
  "compiler": {
    "name": "solc",
    "version": "0.8.10+commit.fc410830.Emscripten.clang"
  },
  "schemaVersion": "3.4.4",
  "updatedAt": "2022-01-08T20:44:11.764Z",
  "devdoc": {
    "kind": "dev",
    "methods": {},
    "version": 1
  },
  "userdoc": {
    "kind": "user",
    "methods": {},
    "version": 1
  }
}