{
  "contractName": "DodajanjeReceptov",
  "abi": [
    {
      "inputs": [],
      "stateMutability": "nonpayable",
      "type": "constructor"
    },
    {
      "anonymous": false,
      "inputs": [
        {
          "indexed": false,
          "internalType": "address",
          "name": "lastnik",
          "type": "address"
        },
        {
          "indexed": false,
          "internalType": "string",
          "name": "idRecepta",
          "type": "string"
        }
      ],
      "name": "ReceptDodajDogodek",
      "type": "event"
    },
    {
      "inputs": [
        {
          "internalType": "uint256",
          "name": "",
          "type": "uint256"
        }
      ],
      "name": "recepti",
      "outputs": [
        {
          "internalType": "string",
          "name": "id",
          "type": "string"
        },
        {
          "internalType": "address",
          "name": "lastnik",
          "type": "address"
        }
      ],
      "stateMutability": "view",
      "type": "function",
      "constant": true
    },
    {
      "inputs": [],
      "name": "skrbnik",
      "outputs": [
        {
          "internalType": "address",
          "name": "",
          "type": "address"
        }
      ],
      "stateMutability": "view",
      "type": "function",
      "constant": true
    },
    {
      "inputs": [
        {
          "internalType": "string",
          "name": "idRecepta",
          "type": "string"
        }
      ],
      "name": "dodajRecept",
      "outputs": [],
      "stateMutability": "nonpayable",
      "type": "function"
    },
    {
      "inputs": [
        {
          "internalType": "address",
          "name": "lastnik",
          "type": "address"
        }
      ],
      "name": "vrniRecepteLastnika",
      "outputs": [
        {
          "components": [
            {
              "internalType": "string",
              "name": "id",
              "type": "string"
            },
            {
              "internalType": "address",
              "name": "lastnik",
              "type": "address"
            }
          ],
          "internalType": "struct DodajanjeReceptov.Recept[]",
          "name": "",
          "type": "tuple[]"
        }
      ],
      "stateMutability": "view",
      "type": "function",
      "constant": true
    }
  ],
  "bytecode": "0x6080604052426000553480156200001557600080fd5b5033600460006101000a81548173ffffffffffffffffffffffffffffffffffffffff021916908373ffffffffffffffffffffffffffffffffffffffff1602179055506200006f6000546200009360201b620005d81760201c565b60016000600260006003600086919050558591905055849190505550505062000624565b6000806000620000b96201518085620000ad91906200030b565b620000cc60201b60201c565b8093508194508295505050509193909250565b600080600080849050600062253d8c62010bd983620000ec91906200034d565b620000f891906200034d565b9050600062023ab18260046200010f9190620003eb565b6200011b919062000512565b9050600460038262023ab1620001329190620003eb565b6200013e91906200034d565b6200014a919062000512565b8262000157919062000586565b9150600062164b096001846200016e91906200034d565b610fa06200017d9190620003eb565b62000189919062000512565b9050601f6004826105b56200019f9190620003eb565b620001ab919062000512565b84620001b8919062000586565b620001c491906200034d565b9250600061098f846050620001da9190620003eb565b620001e6919062000512565b9050600060508261098f620001fc9190620003eb565b62000208919062000512565b8562000215919062000586565b9050600b8262000226919062000512565b945084600c620002379190620003eb565b6002836200024691906200034d565b62000252919062000586565b9150848360318662000265919062000586565b6064620002739190620003eb565b6200027f91906200034d565b6200028b91906200034d565b92508298508197508096505050505050509193909250565b6000819050919050565b7f4e487b7100000000000000000000000000000000000000000000000000000000600052601260045260246000fd5b7f4e487b7100000000000000000000000000000000000000000000000000000000600052601160045260246000fd5b60006200031882620002a3565b91506200032583620002a3565b925082620003385762000337620002ad565b5b828204905092915050565b6000819050919050565b60006200035a8262000343565b9150620003678362000343565b9250817f7fffffffffffffffffffffffffffffffffffffffffffffffffffffffffffffff03831360008312151615620003a557620003a4620002dc565b5b817f8000000000000000000000000000000000000000000000000000000000000000038312600083121615620003e057620003df620002dc565b5b828201905092915050565b6000620003f88262000343565b9150620004058362000343565b9250827f7fffffffffffffffffffffffffffffffffffffffffffffffffffffffffffffff0482116000841360008413161615620004475762000446620002dc565b5b817f80000000000000000000000000000000000000000000000000000000000000000583126000841260008413161615620004875762000486620002dc565b5b827f80000000000000000000000000000000000000000000000000000000000000000582126000841360008412161615620004c757620004c6620002dc565b5b827f7fffffffffffffffffffffffffffffffffffffffffffffffffffffffffffffff0582126000841260008412161615620005075762000506620002dc565b5b828202905092915050565b60006200051f8262000343565b91506200052c8362000343565b9250826200053f576200053e620002ad565b5b600160000383147f8000000000000000000000000000000000000000000000000000000000000000831416156200057b576200057a620002dc565b5b828205905092915050565b6000620005938262000343565b9150620005a08362000343565b9250827f800000000000000000000000000000000000000000000000000000000000000001821260008412151615620005de57620005dd620002dc565b5b827f7fffffffffffffffffffffffffffffffffffffffffffffffffffffffffffffff018213600084121615620006195762000618620002dc565b5b828203905092915050565b6111e780620006346000396000f3fe608060405234801561001057600080fd5b506004361061004c5760003560e01c80630dec315514610051578063101aa6d4146100825780638d4229fa146100a057806399e2340a146100bc575b600080fd5b61006b600480360381019061006691906108c3565b6100ec565b6040516100799291906109ca565b60405180910390f35b61008a6101c8565b60405161009791906109fa565b60405180910390f35b6100ba60048036038101906100b59190610b4a565b6101ee565b005b6100d660048036038101906100d19190610bbf565b6102e6565b6040516100e39190610d44565b60405180910390f35b600581815481106100fc57600080fd5b906000526020600020906002020160009150905080600001805461011f90610d95565b80601f016020809104026020016040519081016040528092919081815260200182805461014b90610d95565b80156101985780601f1061016d57610100808354040283529160200191610198565b820191906000526020600020905b81548152906001019060200180831161017b57829003601f168201915b5050505050908060010160009054906101000a900473ffffffffffffffffffffffffffffffffffffffff16905082565b600460009054906101000a900473ffffffffffffffffffffffffffffffffffffffff1681565b600560405180604001604052808381526020013373ffffffffffffffffffffffffffffffffffffffff16815250908060018154018082558091505060019003906000526020600020906002020160009091909190915060008201518160000190805190602001906102609291906107a6565b5060208201518160010160006101000a81548173ffffffffffffffffffffffffffffffffffffffff021916908373ffffffffffffffffffffffffffffffffffffffff16021790555050507f9a3409128bafad1878f3338093db1359f5212a106f1c0370986c1e6646b435bc33826040516102db929190610dc7565b60405180910390a150565b60606000805b600580549050811015610394578373ffffffffffffffffffffffffffffffffffffffff166005828154811061032457610323610df7565b5b906000526020600020906002020160010160009054906101000a900473ffffffffffffffffffffffffffffffffffffffff1673ffffffffffffffffffffffffffffffffffffffff16141561038157818061037d90610e55565b9250505b808061038c90610e55565b9150506102ec565b5060008167ffffffffffffffff8111156103b1576103b0610a1f565b5b6040519080825280602002602001820160405280156103ea57816020015b6103d761082c565b8152602001906001900390816103cf5790505b5090506000805b6005805490508110156105cc578573ffffffffffffffffffffffffffffffffffffffff166005828154811061042957610428610df7565b5b906000526020600020906002020160010160009054906101000a900473ffffffffffffffffffffffffffffffffffffffff1673ffffffffffffffffffffffffffffffffffffffff1614156105b9576005818154811061048b5761048a610df7565b5b90600052602060002090600202016040518060400160405290816000820180546104b490610d95565b80601f01602080910402602001604051908101604052809291908181526020018280546104e090610d95565b801561052d5780601f106105025761010080835404028352916020019161052d565b820191906000526020600020905b81548152906001019060200180831161051057829003601f168201915b505050505081526020016001820160009054906101000a900473ffffffffffffffffffffffffffffffffffffffff1673ffffffffffffffffffffffffffffffffffffffff1673ffffffffffffffffffffffffffffffffffffffff168152505083838151811061059f5761059e610df7565b5b602002602001018190525081806105b590610e55565b9250505b80806105c490610e55565b9150506103f1565b50819350505050919050565b60008060006105f462015180856105ef9190610ecd565b610607565b8093508194508295505050509193909250565b600080600080849050600062253d8c62010bd9836106259190610f08565b61062f9190610f08565b9050600062023ab18260046106449190610f9c565b61064e91906110b3565b9050600460038262023ab16106639190610f9c565b61066d9190610f08565b61067791906110b3565b82610682919061111d565b9150600062164b096001846106979190610f08565b610fa06106a49190610f9c565b6106ae91906110b3565b9050601f6004826105b56106c29190610f9c565b6106cc91906110b3565b846106d7919061111d565b6106e19190610f08565b9250600061098f8460506106f59190610f9c565b6106ff91906110b3565b9050600060508261098f6107139190610f9c565b61071d91906110b3565b85610728919061111d565b9050600b8261073791906110b3565b945084600c6107469190610f9c565b6002836107539190610f08565b61075d919061111d565b9150848360318661076e919061111d565b606461077a9190610f9c565b6107849190610f08565b61078e9190610f08565b92508298508197508096505050505050509193909250565b8280546107b290610d95565b90600052602060002090601f0160209004810192826107d4576000855561081b565b82601f106107ed57805160ff191683800117855561081b565b8280016001018555821561081b579182015b8281111561081a5782518255916020019190600101906107ff565b5b509050610828919061085c565b5090565b604051806040016040528060608152602001600073ffffffffffffffffffffffffffffffffffffffff1681525090565b5b8082111561087557600081600090555060010161085d565b5090565b6000604051905090565b600080fd5b600080fd5b6000819050919050565b6108a08161088d565b81146108ab57600080fd5b50565b6000813590506108bd81610897565b92915050565b6000602082840312156108d9576108d8610883565b5b60006108e7848285016108ae565b91505092915050565b600081519050919050565b600082825260208201905092915050565b60005b8381101561092a57808201518184015260208101905061090f565b83811115610939576000848401525b50505050565b6000601f19601f8301169050919050565b600061095b826108f0565b61096581856108fb565b935061097581856020860161090c565b61097e8161093f565b840191505092915050565b600073ffffffffffffffffffffffffffffffffffffffff82169050919050565b60006109b482610989565b9050919050565b6109c4816109a9565b82525050565b600060408201905081810360008301526109e48185610950565b90506109f360208301846109bb565b9392505050565b6000602082019050610a0f60008301846109bb565b92915050565b600080fd5b600080fd5b7f4e487b7100000000000000000000000000000000000000000000000000000000600052604160045260246000fd5b610a578261093f565b810181811067ffffffffffffffff82111715610a7657610a75610a1f565b5b80604052505050565b6000610a89610879565b9050610a958282610a4e565b919050565b600067ffffffffffffffff821115610ab557610ab4610a1f565b5b610abe8261093f565b9050602081019050919050565b82818337600083830152505050565b6000610aed610ae884610a9a565b610a7f565b905082815260208101848484011115610b0957610b08610a1a565b5b610b14848285610acb565b509392505050565b600082601f830112610b3157610b30610a15565b5b8135610b41848260208601610ada565b91505092915050565b600060208284031215610b6057610b5f610883565b5b600082013567ffffffffffffffff811115610b7e57610b7d610888565b5b610b8a84828501610b1c565b91505092915050565b610b9c816109a9565b8114610ba757600080fd5b50565b600081359050610bb981610b93565b92915050565b600060208284031215610bd557610bd4610883565b5b6000610be384828501610baa565b91505092915050565b600081519050919050565b600082825260208201905092915050565b6000819050602082019050919050565b600082825260208201905092915050565b6000610c34826108f0565b610c3e8185610c18565b9350610c4e81856020860161090c565b610c578161093f565b840191505092915050565b610c6b816109a9565b82525050565b60006040830160008301518482036000860152610c8e8282610c29565b9150506020830151610ca36020860182610c62565b508091505092915050565b6000610cba8383610c71565b905092915050565b6000602082019050919050565b6000610cda82610bec565b610ce48185610bf7565b935083602082028501610cf685610c08565b8060005b85811015610d325784840389528151610d138582610cae565b9450610d1e83610cc2565b925060208a01995050600181019050610cfa565b50829750879550505050505092915050565b60006020820190508181036000830152610d5e8184610ccf565b905092915050565b7f4e487b7100000000000000000000000000000000000000000000000000000000600052602260045260246000fd5b60006002820490506001821680610dad57607f821691505b60208210811415610dc157610dc0610d66565b5b50919050565b6000604082019050610ddc60008301856109bb565b8181036020830152610dee8184610950565b90509392505050565b7f4e487b7100000000000000000000000000000000000000000000000000000000600052603260045260246000fd5b7f4e487b7100000000000000000000000000000000000000000000000000000000600052601160045260246000fd5b6000610e608261088d565b91507fffffffffffffffffffffffffffffffffffffffffffffffffffffffffffffffff821415610e9357610e92610e26565b5b600182019050919050565b7f4e487b7100000000000000000000000000000000000000000000000000000000600052601260045260246000fd5b6000610ed88261088d565b9150610ee38361088d565b925082610ef357610ef2610e9e565b5b828204905092915050565b6000819050919050565b6000610f1382610efe565b9150610f1e83610efe565b9250817f7fffffffffffffffffffffffffffffffffffffffffffffffffffffffffffffff03831360008312151615610f5957610f58610e26565b5b817f8000000000000000000000000000000000000000000000000000000000000000038312600083121615610f9157610f90610e26565b5b828201905092915050565b6000610fa782610efe565b9150610fb283610efe565b9250827f7fffffffffffffffffffffffffffffffffffffffffffffffffffffffffffffff0482116000841360008413161615610ff157610ff0610e26565b5b817f8000000000000000000000000000000000000000000000000000000000000000058312600084126000841316161561102e5761102d610e26565b5b827f8000000000000000000000000000000000000000000000000000000000000000058212600084136000841216161561106b5761106a610e26565b5b827f7fffffffffffffffffffffffffffffffffffffffffffffffffffffffffffffff05821260008412600084121616156110a8576110a7610e26565b5b828202905092915050565b60006110be82610efe565b91506110c983610efe565b9250826110d9576110d8610e9e565b5b600160000383147f80000000000000000000000000000000000000000000000000000000000000008314161561111257611111610e26565b5b828205905092915050565b600061112882610efe565b915061113383610efe565b9250827f80000000000000000000000000000000000000000000000000000000000000000182126000841215161561116e5761116d610e26565b5b827f7fffffffffffffffffffffffffffffffffffffffffffffffffffffffffffffff0182136000841216156111a6576111a5610e26565b5b82820390509291505056fea26469706673582212209ac538b6d6ea1da613fab3ae744d360db20f5f874eaee232cc275822537f2eb364736f6c634300080a0033",
  "immutableReferences": {},
  "source": "// SPDX-License-Identifier: MIT\r\npragma solidity ^0.8.10;\r\n\r\nimport \"./BokkyPooBahsDateTimeLibrary.sol\";\r\n\r\ncontract DodajanjeReceptov {\r\n\r\n    using BokkyPooBahsDateTimeLibrary for uint;\r\n\r\n    uint today = block.timestamp;\r\n\r\n    uint year;\r\n    uint month;\r\n    uint day;\r\n\r\n    struct Recept {\r\n        string id;\r\n        address lastnik;\r\n    }\r\n    \r\n    address public skrbnik;\r\n\r\n    Recept[] public recepti;\r\n\r\n    event ReceptDodajDogodek(address lastnik, string idRecepta);\r\n\r\n    constructor() {\r\n\r\n        skrbnik = msg.sender;\r\n        (year, month, day) = BokkyPooBahsDateTimeLibrary.timestampToDate(today);\r\n    }\r\n\r\n    function dodajRecept(string memory idRecepta) public {\r\n\r\n        recepti.push(\r\n            Recept({\r\n                id: idRecepta,\r\n                lastnik: msg.sender\r\n            })\r\n        );\r\n\r\n        emit ReceptDodajDogodek(msg.sender, idRecepta);\r\n    }\r\n\r\n    function vrniRecepteLastnika(address lastnik) public view returns(Recept[] memory) {\r\n\r\n        uint numOfRecipes;\r\n\r\n        for(uint i; i < recepti.length; i++) {\r\n            if(recepti[i].lastnik == lastnik) {\r\n                numOfRecipes++;\r\n            }\r\n        }\r\n\r\n        Recept[] memory receptiLastnika = new Recept[](numOfRecipes);\r\n        uint ix;\r\n\r\n        for(uint i; i < recepti.length; i++) {\r\n            if(recepti[i].lastnik == lastnik) {\r\n                receptiLastnika[ix] = recepti[i];\r\n                ix++;\r\n            }\r\n        }\r\n\r\n        return receptiLastnika;\r\n    }\r\n}",
  "sourcePath": "C:\\Users\\adnan\\Desktop\\SP najnovije\\DApp\\LP-21\\app_dapp\\contracts\\DodajanjeReceptov.sol",
  "compiler": {
    "name": "solc",
    "version": "0.8.10+commit.fc410830.Emscripten.clang"
  },
  "schemaVersion": "3.4.4",
  "updatedAt": "2022-01-08T20:44:15.331Z",
  "networkType": "ethereum",
  "devdoc": {
    "kind": "dev",
    "methods": {},
    "version": 1
  },
  "userdoc": {
    "kind": "user",
    "methods": {},
    "version": 1
  }
}